:100000000C9434000C9451000C9451000C94510049
:100010000C9451000C9451000C9451000C9451001C
:100020000C9451000C9451000C9451000C9451000C
:100030000C9451000C9451000C9451000C945100FC
:100040000C9451000C9451000C9451000C945100EC
:100050000C9451000C9451000C9451000C945100DC
:100060000C9451000C94510011241FBECFEFD8E026
:10007000DEBFCDBF11E0A0E0B1E0E4E0F6E002C0F9
:1000800005900D92AC31B107D9F721E0ACE1B1E0B8
:1000900001C01D92AE31B207E1F70E9483020C94B9
:1000A00000030C940000672B09F073C08A3091059F
:1000B00011F4289808958B30910511F4299808952A
:1000C0008C30910511F42A9808958D30910511F422
:1000D0002B9808958E30910511F42C9808958F3047
:1000E000910511F42D9808958031910511F42E9801
:1000F00008958131910511F42F9808958431910567
:1001000011F4409808958531910511F441980895AE
:100110008631910511F4429808958731910511F4C3
:10012000439808958831910511F4449808958931D0
:10013000910511F4459808958A31910511F4469876
:1001400008958E31910511F4589808958F319105D5
:1001500011F4599808958032910511F45A98089530
:100160008132910511F45B9808958232910511F462
:100170005C9808958332910511F45D980895843256
:10018000910511F45E980895859709F073C05F9802
:1001900008958A30910511F4289A08958B309105BD
:1001A00011F4299A08958C30910511F42A9A089532
:1001B0008D30910511F42B9A08958E30910511F42C
:1001C0002C9A08958F30910511F42D9A089580315D
:1001D000910511F42E9A08958131910511F42F9A09
:1001E00008958431910511F4409A0895853191055F
:1001F00011F4419A08958631910511F4429A0895B7
:100200008731910511F4439A08958831910511F4CD
:10021000449A08958931910511F4459A08958A31D7
:10022000910511F4469A08958E31910511F4589A6A
:1002300008958F31910511F4599A089580329105EE
:1002400011F45A9A08958132910511F45B9A089538
:100250008232910511F45C9A08958332910511F46C
:100260005D9A08958432910511F45E9A08958597F8
:1002700009F45F9A0895CF93C82F80FF07C061E00B
:1002800070E082E290E00E94530006C060E070E0FF
:1002900082E290E00E945300C1FF07C061E070E07D
:1002A00083E290E00E94530006C060E070E083E2C9
:1002B00090E00E945300C2FF07C061E070E084E25A
:1002C00090E00E94530006C060E070E084E290E09D
:1002D0000E945300C3FF07C061E070E085E290E038
:1002E0000E94530006C060E070E085E290E00E944A
:1002F0005300CF910895CF93C82F60E070E08AE05B
:1003000090E00E9453008C2F0E943B0161E070E05E
:100310008BE090E00E9453008FE99FE00197F1F796
:1003200000C0000060E070E08BE090E00E945300AD
:100330008FE99FE00197F1F700C00000CF91089589
:1003400080E00E947B0181E00E947B010895CF93B1
:10035000C62F813059F480E8860F82958F700E94F5
:100360007B018C2F8F700E947B010CC0823051F476
:1003700080EC860F82958F700E947B018C2F8F708E
:100380000E947B01CF91089580E00E943B012FEFF6
:1003900089EF90E0215080409040E1F700C00000DC
:1003A00083E00E947B018FE19EE40197F1F700C09A
:1003B000000083E00E947B018FED9BEA0197F1F73B
:1003C00000C0000083E00E947B0182E00E947B016C
:1003D00082E00E947B0188E00E947B0180E00E9415
:1003E0007B018CE00E947B0180E00E947B0186E023
:1003F0000E947B010895CF93C82F61E070E08AE0EE
:1004000090E00E9453008C2F82958F700E943B01D8
:1004100061E070E08BE090E00E9453008FE99FE084
:100420000197F1F700C0000060E070E08BE090E021
:100430000E9453008FE99FE00197F1F700C0000090
:100440008C2F8F700E943B0161E070E08BE090E0A8
:100450000E9453008FE99FE00197F1F700C0000070
:1004600060E070E08BE090E00E9453008FE99FE035
:100470000197F1F700C00000CF910895CF93DF936B
:10048000EC018881882331F021960E94FB0189913B
:100490008111FBCFDF91CF91089581E00E947B0114
:1004A0008CE00E947B01089581E00E947B0188E03E
:1004B0000E947B01089560E070E08CE090E00E9473
:1004C000530060E070E08DE090E00E94530060E037
:1004D00070E08EE090E00E945300089561E070E0CB
:1004E0008CE090E00E945300089561E070E08DE0A0
:1004F00090E00E945300089561E070E08EE090E08B
:100500000E945300089580EF8AB98FEF84B90E944A
:100510005B020E94C4010E946E022FEF83ED90E304
:10052000215080409040E1F700C000000E94750219
:100530002FEF83ED90E3215080409040E1F700C021
:1005400000000E947C022FEF83ED90E32150804059
:100550009040E1F700C0000061E081E00E94A70147
:1005600080E091E00E943E0210921D0110921C0159
:100570002FEF89E698E1215080409040E1F700C0DC
:1005800000000E94540280911C0190911D0101966F
:1005900090931D0180931C010F9754F32CC02FEFF3
:1005A00089E698E1215080409040E1F700C00000CA
:1005B0000E944D0280911C0190911D010196909323
:1005C0001D0180931C010F9754F30E94A00161E06C
:1005D00082E00E94A70185E60E94FB0183E50E945C
:1005E000FB012FEF87EA91E6215080409040E1F730
:1005F00000C00000B1CF10921D0110921C01CFCF9E
:04060000F894FFCF9C
:10060400656C656374726F536F6D65204C43442051
:0C06140048656C6C6F20576F726C6400BE
:00000001FF
